{
  "contractName": "SmartBankAccount",
  "abi": [
    {
      "inputs": [],
      "name": "getContractBalance",
      "outputs": [
        {
          "internalType": "uint256",
          "name": "",
          "type": "uint256"
        }
      ],
      "stateMutability": "view",
      "type": "function",
      "constant": true
    },
    {
      "inputs": [],
      "name": "addBalance",
      "outputs": [],
      "stateMutability": "payable",
      "type": "function",
      "payable": true
    },
    {
      "inputs": [
        {
          "internalType": "address",
          "name": "userAddress",
          "type": "address"
        }
      ],
      "name": "getBalance",
      "outputs": [
        {
          "internalType": "uint256",
          "name": "",
          "type": "uint256"
        }
      ],
      "stateMutability": "view",
      "type": "function",
      "constant": true
    },
    {
      "inputs": [],
      "name": "withdraw",
      "outputs": [],
      "stateMutability": "payable",
      "type": "function",
      "payable": true
    },
    {
      "inputs": [],
      "name": "addMoneyToContract",
      "outputs": [],
      "stateMutability": "payable",
      "type": "function",
      "payable": true
    }
  ],
  "bytecode": "0x60806040526000805534801561001457600080fd5b50610594806100246000396000f3fe60806040526004361061004a5760003560e01c80631834ef4e1461004f5780633ccfd60b146100595780636f9fb98a14610063578063b163cc381461008e578063f8b2cb4f14610098575b600080fd5b6100576100d5565b005b6100616100ef565b005b34801561006f57600080fd5b506100786101a5565b6040516100859190610378565b60405180910390f35b6100966101ae565b005b3480156100a457600080fd5b506100bf60048036038101906100ba919061033c565b61024c565b6040516100cc9190610378565b60405180910390f35b346000808282546100e69190610393565b92505081905550565b600033905060006100ff3361024c565b90508173ffffffffffffffffffffffffffffffffffffffff166108fc829081150290604051600060405180830381858888f19350505050158015610147573d6000803e3d6000fd5b50806000546101569190610474565b6000819055506000600160003373ffffffffffffffffffffffffffffffffffffffff1673ffffffffffffffffffffffffffffffffffffffff168152602001908152602001600020819055505050565b60008054905090565b34600160003373ffffffffffffffffffffffffffffffffffffffff1673ffffffffffffffffffffffffffffffffffffffff16815260200190815260200160002081905550346000546102009190610393565b60008190555042600260003373ffffffffffffffffffffffffffffffffffffffff1673ffffffffffffffffffffffffffffffffffffffff16815260200190815260200160002081905550565b600080600160008473ffffffffffffffffffffffffffffffffffffffff1673ffffffffffffffffffffffffffffffffffffffff1681526020019081526020016000205490506000600260008573ffffffffffffffffffffffffffffffffffffffff1673ffffffffffffffffffffffffffffffffffffffff16815260200190815260200160002054426102de9190610474565b9050600163bbf81e00826007856102f5919061041a565b6102ff919061041a565b61030991906103e9565b836103149190610393565b61031e9190610393565b92505050919050565b60008135905061033681610547565b92915050565b60006020828403121561035257610351610542565b5b600061036084828501610327565b91505092915050565b610372816104da565b82525050565b600060208201905061038d6000830184610369565b92915050565b600061039e826104da565b91506103a9836104da565b9250827fffffffffffffffffffffffffffffffffffffffffffffffffffffffffffffffff038211156103de576103dd6104e4565b5b828201905092915050565b60006103f4826104da565b91506103ff836104da565b92508261040f5761040e610513565b5b828204905092915050565b6000610425826104da565b9150610430836104da565b9250817fffffffffffffffffffffffffffffffffffffffffffffffffffffffffffffffff0483118215151615610469576104686104e4565b5b828202905092915050565b600061047f826104da565b915061048a836104da565b92508282101561049d5761049c6104e4565b5b828203905092915050565b60006104b3826104ba565b9050919050565b600073ffffffffffffffffffffffffffffffffffffffff82169050919050565b6000819050919050565b7f4e487b7100000000000000000000000000000000000000000000000000000000600052601160045260246000fd5b7f4e487b7100000000000000000000000000000000000000000000000000000000600052601260045260246000fd5b600080fd5b610550816104a8565b811461055b57600080fd5b5056fea2646970667358221220839a4bd59eb68491ddfb1c69fcfc5408374c47b4a2bffce0a9de353babb1ad4764736f6c63430008060033",
  "immutableReferences": {},
  "source": "pragma solidity >=0.7.0 <0.9.0;\r\n//SPDX-License-Identifier: None\r\ncontract SmartBankAccount {\r\n\r\n    uint totalContractBalance = 0;\r\n\r\n    function getContractBalance() public view returns(uint){\r\n        return totalContractBalance;\r\n    }\r\n    \r\n    mapping(address => uint) balances;\r\n    mapping(address => uint) depositTimestamps;\r\n    \r\n    function addBalance() public payable {\r\n        balances[msg.sender] = msg.value;\r\n        totalContractBalance = totalContractBalance + msg.value;\r\n        depositTimestamps[msg.sender] = block.timestamp;\r\n    }\r\n    \r\n    function getBalance(address userAddress) public view returns(uint) {\r\n        uint principal = balances[userAddress];\r\n        uint timeElapsed = block.timestamp - depositTimestamps[userAddress]; //seconds\r\n        return principal + uint((principal * 7 * timeElapsed) / (100 * 365 * 24 * 60 * 60)) + 1; //simple interest of 0.07%  per year\r\n    }\r\n    \r\n    function withdraw() public payable {\r\n        address payable withdrawTo = payable(msg.sender);\r\n        uint amountToTransfer = getBalance(msg.sender);\r\n        withdrawTo.transfer(amountToTransfer);\r\n        totalContractBalance = totalContractBalance - amountToTransfer;\r\n        balances[msg.sender] = 0;\r\n    }\r\n    \r\n    function addMoneyToContract() public payable {\r\n        totalContractBalance += msg.value;\r\n    }\r\n}\r\n",
  "sourcePath": "C:\\Users\\dalam\\source\\repos\\questbook\\building_a_bank\\contracts\\Bank.sol",
  "compiler": {
    "name": "solc",
    "version": "0.8.6+commit.11564f7e.Emscripten.clang"
  },
  "schemaVersion": "3.4.3",
  "updatedAt": "2021-10-03T16:00:30.085Z",
  "networkType": "ethereum",
  "devdoc": {
    "kind": "dev",
    "methods": {},
    "version": 1
  },
  "userdoc": {
    "kind": "user",
    "methods": {},
    "version": 1
  }
}